{
  "_format": "hh-sol-artifact-1",
  "contractName": "FinalFantasyNFT",
  "sourceName": "contracts/FinalFantasyNFT.sol",
  "abi": [
    {
      "inputs": [
        {
          "internalType": "string[]",
          "name": "characterNames",
          "type": "string[]"
        },
        {
          "internalType": "string[]",
          "name": "characterImageURIs",
          "type": "string[]"
        },
        {
          "internalType": "uint256[]",
          "name": "characterHp",
          "type": "uint256[]"
        },
        {
          "internalType": "uint256[]",
          "name": "characterMp",
          "type": "uint256[]"
        },
        {
          "internalType": "uint256[]",
          "name": "characterAttackDamage",
          "type": "uint256[]"
        },
        {
          "internalType": "uint256[]",
          "name": "characterSpellDamage",
          "type": "uint256[]"
        },
        {
          "internalType": "string[]",
          "name": "bossStrings",
          "type": "string[]"
        },
        {
          "internalType": "uint256[]",
          "name": "bossValues",
          "type": "uint256[]"
        }
      ],
      "stateMutability": "nonpayable",
      "type": "constructor"
    },
    {
      "anonymous": false,
      "inputs": [
        {
          "indexed": true,
          "internalType": "address",
          "name": "owner",
          "type": "address"
        },
        {
          "indexed": true,
          "internalType": "address",
          "name": "approved",
          "type": "address"
        },
        {
          "indexed": true,
          "internalType": "uint256",
          "name": "tokenId",
          "type": "uint256"
        }
      ],
      "name": "Approval",
      "type": "event"
    },
    {
      "anonymous": false,
      "inputs": [
        {
          "indexed": true,
          "internalType": "address",
          "name": "owner",
          "type": "address"
        },
        {
          "indexed": true,
          "internalType": "address",
          "name": "operator",
          "type": "address"
        },
        {
          "indexed": false,
          "internalType": "bool",
          "name": "approved",
          "type": "bool"
        }
      ],
      "name": "ApprovalForAll",
      "type": "event"
    },
    {
      "anonymous": false,
      "inputs": [
        {
          "indexed": false,
          "internalType": "uint256",
          "name": "newBossHp",
          "type": "uint256"
        },
        {
          "indexed": false,
          "internalType": "uint256",
          "name": "newPlayerHp",
          "type": "uint256"
        }
      ],
      "name": "AttackCompleted",
      "type": "event"
    },
    {
      "anonymous": false,
      "inputs": [
        {
          "indexed": false,
          "internalType": "address",
          "name": "sender",
          "type": "address"
        },
        {
          "indexed": false,
          "internalType": "uint256",
          "name": "tokenId",
          "type": "uint256"
        },
        {
          "indexed": false,
          "internalType": "uint256",
          "name": "characterIndex",
          "type": "uint256"
        }
      ],
      "name": "CharacterNFTMinted",
      "type": "event"
    },
    {
      "anonymous": false,
      "inputs": [
        {
          "indexed": false,
          "internalType": "uint256",
          "name": "newBossHp",
          "type": "uint256"
        },
        {
          "indexed": false,
          "internalType": "uint256",
          "name": "newPlayerHp",
          "type": "uint256"
        }
      ],
      "name": "SpellCompleted",
      "type": "event"
    },
    {
      "anonymous": false,
      "inputs": [
        {
          "indexed": true,
          "internalType": "address",
          "name": "from",
          "type": "address"
        },
        {
          "indexed": true,
          "internalType": "address",
          "name": "to",
          "type": "address"
        },
        {
          "indexed": true,
          "internalType": "uint256",
          "name": "tokenId",
          "type": "uint256"
        }
      ],
      "name": "Transfer",
      "type": "event"
    },
    {
      "inputs": [
        {
          "internalType": "address",
          "name": "to",
          "type": "address"
        },
        {
          "internalType": "uint256",
          "name": "tokenId",
          "type": "uint256"
        }
      ],
      "name": "approve",
      "outputs": [],
      "stateMutability": "nonpayable",
      "type": "function"
    },
    {
      "inputs": [],
      "name": "attackBoss",
      "outputs": [],
      "stateMutability": "nonpayable",
      "type": "function"
    },
    {
      "inputs": [
        {
          "internalType": "address",
          "name": "owner",
          "type": "address"
        }
      ],
      "name": "balanceOf",
      "outputs": [
        {
          "internalType": "uint256",
          "name": "",
          "type": "uint256"
        }
      ],
      "stateMutability": "view",
      "type": "function"
    },
    {
      "inputs": [],
      "name": "boss",
      "outputs": [
        {
          "internalType": "string",
          "name": "name",
          "type": "string"
        },
        {
          "internalType": "string",
          "name": "imageURI",
          "type": "string"
        },
        {
          "internalType": "uint256",
          "name": "hp",
          "type": "uint256"
        },
        {
          "internalType": "uint256",
          "name": "maxHp",
          "type": "uint256"
        },
        {
          "internalType": "uint256",
          "name": "mp",
          "type": "uint256"
        },
        {
          "internalType": "uint256",
          "name": "maxMp",
          "type": "uint256"
        },
        {
          "internalType": "uint256",
          "name": "attackDamage",
          "type": "uint256"
        },
        {
          "internalType": "uint256",
          "name": "spellDamage",
          "type": "uint256"
        }
      ],
      "stateMutability": "view",
      "type": "function"
    },
    {
      "inputs": [],
      "name": "castSpellOnBoss",
      "outputs": [],
      "stateMutability": "nonpayable",
      "type": "function"
    },
    {
      "inputs": [],
      "name": "checkIfUserHasNFT",
      "outputs": [
        {
          "components": [
            {
              "internalType": "uint256",
              "name": "index",
              "type": "uint256"
            },
            {
              "internalType": "string",
              "name": "name",
              "type": "string"
            },
            {
              "internalType": "string",
              "name": "imageURI",
              "type": "string"
            },
            {
              "internalType": "uint256",
              "name": "hp",
              "type": "uint256"
            },
            {
              "internalType": "uint256",
              "name": "maxHp",
              "type": "uint256"
            },
            {
              "internalType": "uint256",
              "name": "mp",
              "type": "uint256"
            },
            {
              "internalType": "uint256",
              "name": "maxMp",
              "type": "uint256"
            },
            {
              "internalType": "uint256",
              "name": "attackDamage",
              "type": "uint256"
            },
            {
              "internalType": "uint256",
              "name": "spellDamage",
              "type": "uint256"
            }
          ],
          "internalType": "struct FinalFantasyNFT.Characteristics",
          "name": "",
          "type": "tuple"
        }
      ],
      "stateMutability": "view",
      "type": "function"
    },
    {
      "inputs": [],
      "name": "getAllDefaultCharacters",
      "outputs": [
        {
          "components": [
            {
              "internalType": "uint256",
              "name": "index",
              "type": "uint256"
            },
            {
              "internalType": "string",
              "name": "name",
              "type": "string"
            },
            {
              "internalType": "string",
              "name": "imageURI",
              "type": "string"
            },
            {
              "internalType": "uint256",
              "name": "hp",
              "type": "uint256"
            },
            {
              "internalType": "uint256",
              "name": "maxHp",
              "type": "uint256"
            },
            {
              "internalType": "uint256",
              "name": "mp",
              "type": "uint256"
            },
            {
              "internalType": "uint256",
              "name": "maxMp",
              "type": "uint256"
            },
            {
              "internalType": "uint256",
              "name": "attackDamage",
              "type": "uint256"
            },
            {
              "internalType": "uint256",
              "name": "spellDamage",
              "type": "uint256"
            }
          ],
          "internalType": "struct FinalFantasyNFT.Characteristics[]",
          "name": "",
          "type": "tuple[]"
        }
      ],
      "stateMutability": "view",
      "type": "function"
    },
    {
      "inputs": [
        {
          "internalType": "uint256",
          "name": "tokenId",
          "type": "uint256"
        }
      ],
      "name": "getApproved",
      "outputs": [
        {
          "internalType": "address",
          "name": "",
          "type": "address"
        }
      ],
      "stateMutability": "view",
      "type": "function"
    },
    {
      "inputs": [],
      "name": "getBoss",
      "outputs": [
        {
          "components": [
            {
              "internalType": "string",
              "name": "name",
              "type": "string"
            },
            {
              "internalType": "string",
              "name": "imageURI",
              "type": "string"
            },
            {
              "internalType": "uint256",
              "name": "hp",
              "type": "uint256"
            },
            {
              "internalType": "uint256",
              "name": "maxHp",
              "type": "uint256"
            },
            {
              "internalType": "uint256",
              "name": "mp",
              "type": "uint256"
            },
            {
              "internalType": "uint256",
              "name": "maxMp",
              "type": "uint256"
            },
            {
              "internalType": "uint256",
              "name": "attackDamage",
              "type": "uint256"
            },
            {
              "internalType": "uint256",
              "name": "spellDamage",
              "type": "uint256"
            }
          ],
          "internalType": "struct FinalFantasyNFT.Boss",
          "name": "",
          "type": "tuple"
        }
      ],
      "stateMutability": "view",
      "type": "function"
    },
    {
      "inputs": [
        {
          "internalType": "address",
          "name": "owner",
          "type": "address"
        },
        {
          "internalType": "address",
          "name": "operator",
          "type": "address"
        }
      ],
      "name": "isApprovedForAll",
      "outputs": [
        {
          "internalType": "bool",
          "name": "",
          "type": "bool"
        }
      ],
      "stateMutability": "view",
      "type": "function"
    },
    {
      "inputs": [
        {
          "internalType": "uint256",
          "name": "_characterIndex",
          "type": "uint256"
        }
      ],
      "name": "mintNFT",
      "outputs": [],
      "stateMutability": "nonpayable",
      "type": "function"
    },
    {
      "inputs": [],
      "name": "name",
      "outputs": [
        {
          "internalType": "string",
          "name": "",
          "type": "string"
        }
      ],
      "stateMutability": "view",
      "type": "function"
    },
    {
      "inputs": [
        {
          "internalType": "uint256",
          "name": "",
          "type": "uint256"
        }
      ],
      "name": "nftHolderAttributes",
      "outputs": [
        {
          "internalType": "uint256",
          "name": "index",
          "type": "uint256"
        },
        {
          "internalType": "string",
          "name": "name",
          "type": "string"
        },
        {
          "internalType": "string",
          "name": "imageURI",
          "type": "string"
        },
        {
          "internalType": "uint256",
          "name": "hp",
          "type": "uint256"
        },
        {
          "internalType": "uint256",
          "name": "maxHp",
          "type": "uint256"
        },
        {
          "internalType": "uint256",
          "name": "mp",
          "type": "uint256"
        },
        {
          "internalType": "uint256",
          "name": "maxMp",
          "type": "uint256"
        },
        {
          "internalType": "uint256",
          "name": "attackDamage",
          "type": "uint256"
        },
        {
          "internalType": "uint256",
          "name": "spellDamage",
          "type": "uint256"
        }
      ],
      "stateMutability": "view",
      "type": "function"
    },
    {
      "inputs": [
        {
          "internalType": "address",
          "name": "",
          "type": "address"
        }
      ],
      "name": "nftHolders",
      "outputs": [
        {
          "internalType": "uint256",
          "name": "",
          "type": "uint256"
        }
      ],
      "stateMutability": "view",
      "type": "function"
    },
    {
      "inputs": [
        {
          "internalType": "uint256",
          "name": "tokenId",
          "type": "uint256"
        }
      ],
      "name": "ownerOf",
      "outputs": [
        {
          "internalType": "address",
          "name": "",
          "type": "address"
        }
      ],
      "stateMutability": "view",
      "type": "function"
    },
    {
      "inputs": [
        {
          "internalType": "address",
          "name": "from",
          "type": "address"
        },
        {
          "internalType": "address",
          "name": "to",
          "type": "address"
        },
        {
          "internalType": "uint256",
          "name": "tokenId",
          "type": "uint256"
        }
      ],
      "name": "safeTransferFrom",
      "outputs": [],
      "stateMutability": "nonpayable",
      "type": "function"
    },
    {
      "inputs": [
        {
          "internalType": "address",
          "name": "from",
          "type": "address"
        },
        {
          "internalType": "address",
          "name": "to",
          "type": "address"
        },
        {
          "internalType": "uint256",
          "name": "tokenId",
          "type": "uint256"
        },
        {
          "internalType": "bytes",
          "name": "_data",
          "type": "bytes"
        }
      ],
      "name": "safeTransferFrom",
      "outputs": [],
      "stateMutability": "nonpayable",
      "type": "function"
    },
    {
      "inputs": [
        {
          "internalType": "address",
          "name": "operator",
          "type": "address"
        },
        {
          "internalType": "bool",
          "name": "approved",
          "type": "bool"
        }
      ],
      "name": "setApprovalForAll",
      "outputs": [],
      "stateMutability": "nonpayable",
      "type": "function"
    },
    {
      "inputs": [
        {
          "internalType": "bytes4",
          "name": "interfaceId",
          "type": "bytes4"
        }
      ],
      "name": "supportsInterface",
      "outputs": [
        {
          "internalType": "bool",
          "name": "",
          "type": "bool"
        }
      ],
      "stateMutability": "view",
      "type": "function"
    },
    {
      "inputs": [],
      "name": "symbol",
      "outputs": [
        {
          "internalType": "string",
          "name": "",
          "type": "string"
        }
      ],
      "stateMutability": "view",
      "type": "function"
    },
    {
      "inputs": [
        {
          "internalType": "uint256",
          "name": "_tokenId",
          "type": "uint256"
        }
      ],
      "name": "tokenURI",
      "outputs": [
        {
          "internalType": "string",
          "name": "",
          "type": "string"
        }
      ],
      "stateMutability": "view",
      "type": "function"
    },
    {
      "inputs": [
        {
          "internalType": "address",
          "name": "from",
          "type": "address"
        },
        {
          "internalType": "address",
          "name": "to",
          "type": "address"
        },
        {
          "internalType": "uint256",
          "name": "tokenId",
          "type": "uint256"
        }
      ],
      "name": "transferFrom",
      "outputs": [],
      "stateMutability": "nonpayable",
      "type": "function"
    }
  ],
  "bytecode": "0x60806040523480156200001157600080fd5b506040516200701c3803806200701c833981810160405281019062000037919062000e5b565b6040518060400160405280600d81526020017f46696e616c2046616e74617379000000000000000000000000000000000000008152506040518060400160405280600581526020017f46465649490000000000000000000000000000000000000000000000000000008152508160009080519060200190620000bb92919062000bee565b508060019080519060200190620000d492919062000bee565b505050604051806101000160405280836000815181106200011e577f4e487b7100000000000000000000000000000000000000000000000000000000600052603260045260246000fd5b602002602001015181526020018360018151811062000166577f4e487b7100000000000000000000000000000000000000000000000000000000600052603260045260246000fd5b6020026020010151815260200182600081518110620001ae577f4e487b7100000000000000000000000000000000000000000000000000000000600052603260045260246000fd5b6020026020010151815260200182600181518110620001f6577f4e487b7100000000000000000000000000000000000000000000000000000000600052603260045260246000fd5b60200260200101518152602001826002815181106200023e577f4e487b7100000000000000000000000000000000000000000000000000000000600052603260045260246000fd5b602002602001015181526020018260038151811062000286577f4e487b7100000000000000000000000000000000000000000000000000000000600052603260045260246000fd5b6020026020010151815260200182600481518110620002ce577f4e487b7100000000000000000000000000000000000000000000000000000000600052603260045260246000fd5b602002602001015181526020018260058151811062000316577f4e487b7100000000000000000000000000000000000000000000000000000000600052603260045260246000fd5b6020026020010151815250600660008201518160000190805190602001906200034192919062000bee565b5060208201518160010190805190602001906200036092919062000bee565b5060408201518160020155606082015181600301556080820151816004015560a0820151816005015560c0820151816006015560e08201518160070155905050620005016040518060600160405280602a815260200162006ff2602a913960066000018054620003d09062001273565b80601f0160208091040260200160405190810160405280929190818152602001828054620003fe9062001273565b80156200044f5780601f1062000423576101008083540402835291602001916200044f565b820191906000526020600020905b8154815290600101906020018083116200043157829003601f168201915b5050505050600660020154600660010180546200046c9062001273565b80601f01602080910402602001604051908101604052809291908181526020018280546200049a9062001273565b8015620004eb5780601f10620004bf57610100808354040283529160200191620004eb565b820191906000526020600020905b815481529060010190602001808311620004cd57829003601f168201915b505050505062000a5760201b62002d0d1760201c565b60005b885181101562000a3157600f6040518061012001604052808381526020018b84815181106200055c577f4e487b7100000000000000000000000000000000000000000000000000000000600052603260045260246000fd5b602002602001015181526020018a8481518110620005a3577f4e487b7100000000000000000000000000000000000000000000000000000000600052603260045260246000fd5b60200260200101518152602001898481518110620005ea577f4e487b7100000000000000000000000000000000000000000000000000000000600052603260045260246000fd5b6020026020010151815260200189848151811062000631577f4e487b7100000000000000000000000000000000000000000000000000000000600052603260045260246000fd5b6020026020010151815260200188848151811062000678577f4e487b7100000000000000000000000000000000000000000000000000000000600052603260045260246000fd5b60200260200101518152602001888481518110620006bf577f4e487b7100000000000000000000000000000000000000000000000000000000600052603260045260246000fd5b6020026020010151815260200187848151811062000706577f4e487b7100000000000000000000000000000000000000000000000000000000600052603260045260246000fd5b602002602001015181526020018684815181106200074d577f4e487b7100000000000000000000000000000000000000000000000000000000600052603260045260246000fd5b60200260200101518152509080600181540180825580915050600190039060005260206000209060090201600090919091909150600082015181600001556020820151816001019080519060200190620007a992919062000bee565b506040820151816002019080519060200190620007c892919062000bee565b50606082015181600301556080820151816004015560a0820151816005015560c0820151816006015560e08201518160070155610100820151816008015550506000600f828154811062000845577f4e487b7100000000000000000000000000000000000000000000000000000000600052603260045260246000fd5b906000526020600020906009020160405180610120016040529081600082015481526020016001820180546200087b9062001273565b80601f0160208091040260200160405190810160405280929190818152602001828054620008a99062001273565b8015620008fa5780601f10620008ce57610100808354040283529160200191620008fa565b820191906000526020600020905b815481529060010190602001808311620008dc57829003601f168201915b50505050508152602001600282018054620009159062001273565b80601f0160208091040260200160405190810160405280929190818152602001828054620009439062001273565b8015620009945780601f10620009685761010080835404028352916020019162000994565b820191906000526020600020905b8154815290600101906020018083116200097657829003601f168201915b505050505081526020016003820154815260200160048201548152602001600582015481526020016006820154815260200160078201548152602001600882015481525050905062000a1960405180606001604052806025815260200162006fcd60259139826020015183606001518460a0015162000b0360201b62002daf1760201c565b5060018162000a299190620011d6565b905062000504565b5062000a49600e62000baf60201b62002e511760201c565b505050505050505062001361565b62000afd8484848460405160240162000a74949392919062001038565b6040516020818303038152906040527f8d142cdd000000000000000000000000000000000000000000000000000000007bffffffffffffffffffffffffffffffffffffffffffffffffffffffff19166020820180517bffffffffffffffffffffffffffffffffffffffffffffffffffffffff838183161783525050505062000bc560201b60201c565b50505050565b62000ba98484848460405160240162000b2094939291906200109a565b6040516020818303038152906040527fd5cf17d0000000000000000000000000000000000000000000000000000000007bffffffffffffffffffffffffffffffffffffffffffffffffffffffff19166020820180517bffffffffffffffffffffffffffffffffffffffffffffffffffffffff838183161783525050505062000bc560201b60201c565b50505050565b6001816000016000828254019250508190555050565b60008151905060006a636f6e736f6c652e6c6f679050602083016000808483855afa5050505050565b82805462000bfc9062001273565b90600052602060002090601f01602090048101928262000c20576000855562000c6c565b82601f1062000c3b57805160ff191683800117855562000c6c565b8280016001018555821562000c6c579182015b8281111562000c6b57825182559160200191906001019062000c4e565b5b50905062000c7b919062000c7f565b5090565b5b8082111562000c9a57600081600090555060010162000c80565b5090565b600062000cb562000caf8462001129565b620010f5565b9050808382526020820190508260005b8581101562000cf9578151850162000cde888262000e17565b84526020840193506020830192505060018101905062000cc5565b5050509392505050565b600062000d1a62000d148462001158565b620010f5565b9050808382526020820190508285602086028201111562000d3a57600080fd5b60005b8581101562000d6e578162000d53888262000e44565b84526020840193506020830192505060018101905062000d3d565b5050509392505050565b600062000d8f62000d898462001187565b620010f5565b90508281526020810184848401111562000da857600080fd5b62000db58482856200123d565b509392505050565b600082601f83011262000dcf57600080fd5b815162000de184826020860162000c9e565b91505092915050565b600082601f83011262000dfc57600080fd5b815162000e0e84826020860162000d03565b91505092915050565b600082601f83011262000e2957600080fd5b815162000e3b84826020860162000d78565b91505092915050565b60008151905062000e558162001347565b92915050565b600080600080600080600080610100898b03121562000e7957600080fd5b600089015167ffffffffffffffff81111562000e9457600080fd5b62000ea28b828c0162000dbd565b985050602089015167ffffffffffffffff81111562000ec057600080fd5b62000ece8b828c0162000dbd565b975050604089015167ffffffffffffffff81111562000eec57600080fd5b62000efa8b828c0162000dea565b965050606089015167ffffffffffffffff81111562000f1857600080fd5b62000f268b828c0162000dea565b955050608089015167ffffffffffffffff81111562000f4457600080fd5b62000f528b828c0162000dea565b94505060a089015167ffffffffffffffff81111562000f7057600080fd5b62000f7e8b828c0162000dea565b93505060c089015167ffffffffffffffff81111562000f9c57600080fd5b62000faa8b828c0162000dbd565b92505060e089015167ffffffffffffffff81111562000fc857600080fd5b62000fd68b828c0162000dea565b9150509295985092959890939650565b600062000ff382620011ba565b62000fff8185620011c5565b9350620010118185602086016200123d565b6200101c8162001336565b840191505092915050565b620010328162001233565b82525050565b6000608082019050818103600083015262001054818762000fe6565b905081810360208301526200106a818662000fe6565b90506200107b604083018562001027565b81810360608301526200108f818462000fe6565b905095945050505050565b60006080820190508181036000830152620010b6818762000fe6565b90508181036020830152620010cc818662000fe6565b9050620010dd604083018562001027565b620010ec606083018462001027565b95945050505050565b6000604051905081810181811067ffffffffffffffff821117156200111f576200111e62001307565b5b8060405250919050565b600067ffffffffffffffff82111562001147576200114662001307565b5b602082029050602081019050919050565b600067ffffffffffffffff82111562001176576200117562001307565b5b602082029050602081019050919050565b600067ffffffffffffffff821115620011a557620011a462001307565b5b601f19601f8301169050602081019050919050565b600081519050919050565b600082825260208201905092915050565b6000620011e38262001233565b9150620011f08362001233565b9250827fffffffffffffffffffffffffffffffffffffffffffffffffffffffffffffffff03821115620012285762001227620012a9565b5b828201905092915050565b6000819050919050565b60005b838110156200125d57808201518184015260208101905062001240565b838111156200126d576000848401525b50505050565b600060028204905060018216806200128c57607f821691505b60208210811415620012a357620012a2620012d8565b5b50919050565b7f4e487b7100000000000000000000000000000000000000000000000000000000600052601160045260246000fd5b7f4e487b7100000000000000000000000000000000000000000000000000000000600052602260045260246000fd5b7f4e487b7100000000000000000000000000000000000000000000000000000000600052604160045260246000fd5b6000601f19601f8301169050919050565b620013528162001233565b81146200135e57600080fd5b50565b615c5c80620013716000396000f3fe608060405234801561001057600080fd5b50600436106101425760003560e01c806395d89b41116100b8578063c76d9e7d1161007c578063c76d9e7d1461037b578063c772af3914610399578063c87b56dd146103be578063c8cf27f4146103ee578063d4f24c5b1461040c578063e985e9c51461041657610142565b806395d89b41146102cf57806398da4c95146102ed578063a22cb46514610325578063b88d4fde14610341578063b953084e1461035d57610142565b806342842e0e1161010a57806342842e0e146101fd57806354dd134e146102195780636352211e1461022357806370a08231146102535780637df124a11461028357806392642744146102b357610142565b806301ffc9a71461014757806306fdde0314610177578063081812fc14610195578063095ea7b3146101c557806323b872dd146101e1575b600080fd5b610161600480360381019061015c9190614157565b610446565b60405161016e919061508b565b60405180910390f35b61017f610528565b60405161018c91906150a6565b60405180910390f35b6101af60048036038101906101aa91906141a9565b6105ba565b6040516101bc9190614fcb565b60405180910390f35b6101df60048036038101906101da919061411b565b61063f565b005b6101fb60048036038101906101f69190614015565b610757565b005b61021760048036038101906102129190614015565b6107b7565b005b6102216107d7565b005b61023d600480360381019061023891906141a9565b6110b0565b60405161024a9190614fcb565b60405180910390f35b61026d60048036038101906102689190613fb0565b611162565b60405161027a919061558e565b60405180910390f35b61029d60048036038101906102989190613fb0565b61121a565b6040516102aa919061558e565b60405180910390f35b6102cd60048036038101906102c891906141a9565b611232565b005b6102d76117d8565b6040516102e491906150a6565b60405180910390f35b610307600480360381019061030291906141a9565b61186a565b60405161031c999897969594939291906155a9565b60405180910390f35b61033f600480360381019061033a91906140df565b6119c8565b005b61035b60048036038101906103569190614064565b611b49565b005b610365611bab565b6040516103729190615069565b60405180910390f35b610383611d75565b604051610390919061554a565b60405180910390f35b6103a1611ef0565b6040516103b598979695949392919061524b565b60405180910390f35b6103d860048036038101906103d391906141a9565b612036565b6040516103e591906150a6565b60405180910390f35b6103f66122ad565b604051610403919061556c565b60405180910390f35b6104146124a4565b005b610430600480360381019061042b9190613fd9565b612c79565b60405161043d919061508b565b60405180910390f35b60007f80ac58cd000000000000000000000000000000000000000000000000000000007bffffffffffffffffffffffffffffffffffffffffffffffffffffffff1916827bffffffffffffffffffffffffffffffffffffffffffffffffffffffff1916148061051157507f5b5e139f000000000000000000000000000000000000000000000000000000007bffffffffffffffffffffffffffffffffffffffffffffffffffffffff1916827bffffffffffffffffffffffffffffffffffffffffffffffffffffffff1916145b80610521575061052082612e67565b5b9050919050565b60606000805461053790615926565b80601f016020809104026020016040519081016040528092919081815260200182805461056390615926565b80156105b05780601f10610585576101008083540402835291602001916105b0565b820191906000526020600020905b81548152906001019060200180831161059357829003601f168201915b5050505050905090565b60006105c582612ed1565b610604576040517f08c379a00000000000000000000000000000000000000000000000000000000081526004016105fb9061548a565b60405180910390fd5b6004600083815260200190815260200160002060009054906101000a900473ffffffffffffffffffffffffffffffffffffffff169050919050565b600061064a826110b0565b90508073ffffffffffffffffffffffffffffffffffffffff168373ffffffffffffffffffffffffffffffffffffffff1614156106bb576040517f08c379a00000000000000000000000000000000000000000000000000000000081526004016106b2906154ca565b60405180910390fd5b8073ffffffffffffffffffffffffffffffffffffffff166106da612f3d565b73ffffffffffffffffffffffffffffffffffffffff161480610709575061070881610703612f3d565b612c79565b5b610748576040517f08c379a000000000000000000000000000000000000000000000000000000000815260040161073f906153ea565b60405180910390fd5b6107528383612f45565b505050565b610768610762612f3d565b82612ffe565b6107a7576040517f08c379a000000000000000000000000000000000000000000000000000000000815260040161079e9061550a565b60405180910390fd5b6107b28383836130dc565b505050565b6107d283838360405180602001604052806000815250611b49565b505050565b6000601160003373ffffffffffffffffffffffffffffffffffffffff1673ffffffffffffffffffffffffffffffffffffffff16815260200190815260200160002054905060006010600083815260200190815260200160002090506000816003015411610879576040517f08c379a00000000000000000000000000000000000000000000000000000000081526004016108709061546a565b60405180910390fd5b60008160050154116108c0576040517f08c379a00000000000000000000000000000000000000000000000000000000081526004016108b79061552a565b60405180910390fd5b6109fd604051806060016040528060248152602001615c03602491398260010180546108eb90615926565b80601f016020809104026020016040519081016040528092919081815260200182805461091790615926565b80156109645780601f1061093957610100808354040283529160200191610964565b820191906000526020600020905b81548152906001019060200180831161094757829003601f168201915b5050505050846006600001805461097a90615926565b80601f01602080910402602001604051908101604052809291908181526020018280546109a690615926565b80156109f35780601f106109c8576101008083540402835291602001916109f3565b820191906000526020600020905b8154815290600101906020018083116109d657829003601f168201915b5050505050612d0d565b600060066002015411610a45576040517f08c379a0000000000000000000000000000000000000000000000000000000008152600401610a3c906154ea565b60405180910390fd5b600060066004015411610a8d576040517f08c379a0000000000000000000000000000000000000000000000000000000008152600401610a849061536a565b60405180910390fd5b610b47604051806060016040528060228152602001615ba56022913960066000018054610ab990615926565b80601f0160208091040260200160405190810160405280929190818152602001828054610ae590615926565b8015610b325780601f10610b0757610100808354040283529160200191610b32565b820191906000526020600020905b815481529060010190602001808311610b1557829003601f168201915b50505050506006600201548460080154612daf565b80600801546006600201541015610c3457610c246040518060400160405280600c81526020017f0a2573206973206465616421000000000000000000000000000000000000000081525060066000018054610ba190615926565b80601f0160208091040260200160405190810160405280929190818152602001828054610bcd90615926565b8015610c1a5780601f10610bef57610100808354040283529160200191610c1a565b820191906000526020600020905b815481529060010190602001808311610bfd57829003601f168201915b5050505050613338565b6000600660020181905550610d3a565b610d1b6040518060400160405280601481526020017f0a25733a202573204850202d2d3e20257320485000000000000000000000000081525060066000018054610c7d90615926565b80601f0160208091040260200160405190810160405280929190818152602001828054610ca990615926565b8015610cf65780601f10610ccb57610100808354040283529160200191610cf6565b820191906000526020600020905b815481529060010190602001808311610cd957829003601f168201915b50505050506006600201548460080154600660020154610d16919061583c565b612daf565b8060080154600660020154610d30919061583c565b6006600201819055505b610e7c6040518060600160405280603c8152602001615bc7603c913960066000018054610d6690615926565b80601f0160208091040260200160405190810160405280929190818152602001828054610d9290615926565b8015610ddf5780601f10610db457610100808354040283529160200191610ddf565b820191906000526020600020905b815481529060010190602001808311610dc257829003601f168201915b5050505050836001018054610df390615926565b80601f0160208091040260200160405190810160405280929190818152602001828054610e1f90615926565b8015610e6c5780601f10610e4157610100808354040283529160200191610e6c565b820191906000526020600020905b815481529060010190602001808311610e4f57829003601f168201915b50505050506006600701546133d4565b60066007015481600301541015610f6757610f586040518060400160405280600c81526020017f0a25732069732064656164210000000000000000000000000000000000000000815250826001018054610ed590615926565b80601f0160208091040260200160405190810160405280929190818152602001828054610f0190615926565b8015610f4e5780601f10610f2357610100808354040283529160200191610f4e565b820191906000526020600020905b815481529060010190602001808311610f3157829003601f168201915b5050505050613338565b6000816003018190555061106a565b61104c6040518060400160405280601481526020017f0a25733a202573204850202d2d3e202573204850000000000000000000000000815250826001018054610faf90615926565b80601f0160208091040260200160405190810160405280929190818152602001828054610fdb90615926565b80156110285780601f10610ffd57610100808354040283529160200191611028565b820191906000526020600020905b81548152906001019060200180831161100b57829003601f168201915b505050505083600301546006600701548560030154611047919061583c565b612daf565b6006600701548160030154611061919061583c565b81600301819055505b7f812125d20d0d533b90ea0b108a79f4df5163750af7135e2c2e8ca3cde35e55b360066002015482600301546040516110a4929190615644565b60405180910390a15050565b6000806002600084815260200190815260200160002060009054906101000a900473ffffffffffffffffffffffffffffffffffffffff169050600073ffffffffffffffffffffffffffffffffffffffff168173ffffffffffffffffffffffffffffffffffffffff161415611159576040517f08c379a00000000000000000000000000000000000000000000000000000000081526004016111509061542a565b60405180910390fd5b80915050919050565b60008073ffffffffffffffffffffffffffffffffffffffff168273ffffffffffffffffffffffffffffffffffffffff1614156111d3576040517f08c379a00000000000000000000000000000000000000000000000000000000081526004016111ca9061540a565b60405180910390fd5b600360008373ffffffffffffffffffffffffffffffffffffffff1673ffffffffffffffffffffffffffffffffffffffff168152602001908152602001600020549050919050565b60116020528060005260406000206000915090505481565b600061123e600e613476565b905061124a3382613484565b604051806101200160405280838152602001600f8481548110611296577f4e487b7100000000000000000000000000000000000000000000000000000000600052603260045260246000fd5b906000526020600020906009020160010180546112b290615926565b80601f01602080910402602001604051908101604052809291908181526020018280546112de90615926565b801561132b5780601f106113005761010080835404028352916020019161132b565b820191906000526020600020905b81548152906001019060200180831161130e57829003601f168201915b50505050508152602001600f848154811061136f577f4e487b7100000000000000000000000000000000000000000000000000000000600052603260045260246000fd5b9060005260206000209060090201600201805461138b90615926565b80601f01602080910402602001604051908101604052809291908181526020018280546113b790615926565b80156114045780601f106113d957610100808354040283529160200191611404565b820191906000526020600020905b8154815290600101906020018083116113e757829003601f168201915b50505050508152602001600f8481548110611448577f4e487b7100000000000000000000000000000000000000000000000000000000600052603260045260246000fd5b9060005260206000209060090201600301548152602001600f8481548110611499577f4e487b7100000000000000000000000000000000000000000000000000000000600052603260045260246000fd5b9060005260206000209060090201600401548152602001600f84815481106114ea577f4e487b7100000000000000000000000000000000000000000000000000000000600052603260045260246000fd5b9060005260206000209060090201600501548152602001600f848154811061153b577f4e487b7100000000000000000000000000000000000000000000000000000000600052603260045260246000fd5b9060005260206000209060090201600601548152602001600f848154811061158c577f4e487b7100000000000000000000000000000000000000000000000000000000600052603260045260246000fd5b9060005260206000209060090201600701548152602001600f84815481106115dd577f4e487b7100000000000000000000000000000000000000000000000000000000600052603260045260246000fd5b9060005260206000209060090201600801548152506010600083815260200190815260200160002060008201518160000155602082015181600101908051906020019061162b929190613dab565b506040820151816002019080519060200190611648929190613dab565b50606082015181600301556080820151816004015560a0820151816005015560c0820151816006015560e08201518160070155610100820151816008015590505061174b604051806060016040528060388152602001615afc60389139826010600085815260200190815260200160002060010180546116c790615926565b80601f01602080910402602001604051908101604052809291908181526020018280546116f390615926565b80156117405780601f1061171557610100808354040283529160200191611740565b820191906000526020600020905b81548152906001019060200180831161172357829003601f168201915b5050505050856134a2565b80601160003373ffffffffffffffffffffffffffffffffffffffff1673ffffffffffffffffffffffffffffffffffffffff16815260200190815260200160002081905550611799600e612e51565b7f4bc303fd457a97b4691b9af582ce71868a3d258638c8d4f8c60988a0f0bfb8cd3382846040516117cc93929190615032565b60405180910390a15050565b6060600180546117e790615926565b80601f016020809104026020016040519081016040528092919081815260200182805461181390615926565b80156118605780601f1061183557610100808354040283529160200191611860565b820191906000526020600020905b81548152906001019060200180831161184357829003601f168201915b5050505050905090565b601060205280600052604060002060009150905080600001549080600101805461189390615926565b80601f01602080910402602001604051908101604052809291908181526020018280546118bf90615926565b801561190c5780601f106118e15761010080835404028352916020019161190c565b820191906000526020600020905b8154815290600101906020018083116118ef57829003601f168201915b50505050509080600201805461192190615926565b80601f016020809104026020016040519081016040528092919081815260200182805461194d90615926565b801561199a5780601f1061196f5761010080835404028352916020019161199a565b820191906000526020600020905b81548152906001019060200180831161197d57829003601f168201915b5050505050908060030154908060040154908060050154908060060154908060070154908060080154905089565b6119d0612f3d565b73ffffffffffffffffffffffffffffffffffffffff168273ffffffffffffffffffffffffffffffffffffffff161415611a3e576040517f08c379a0000000000000000000000000000000000000000000000000000000008152600401611a35906153aa565b60405180910390fd5b8060056000611a4b612f3d565b73ffffffffffffffffffffffffffffffffffffffff1673ffffffffffffffffffffffffffffffffffffffff16815260200190815260200160002060008473ffffffffffffffffffffffffffffffffffffffff1673ffffffffffffffffffffffffffffffffffffffff16815260200190815260200160002060006101000a81548160ff0219169083151502179055508173ffffffffffffffffffffffffffffffffffffffff16611af8612f3d565b73ffffffffffffffffffffffffffffffffffffffff167f17307eab39ab6107e8899845ad3d59bd9653f200f220920489ca2b5937696c3183604051611b3d919061508b565b60405180910390a35050565b611b5a611b54612f3d565b83612ffe565b611b99576040517f08c379a0000000000000000000000000000000000000000000000000000000008152600401611b909061550a565b60405180910390fd5b611ba584848484613544565b50505050565b6060600f805480602002602001604051908101604052809291908181526020016000905b82821015611d6c57838290600052602060002090600902016040518061012001604052908160008201548152602001600182018054611c0d90615926565b80601f0160208091040260200160405190810160405280929190818152602001828054611c3990615926565b8015611c865780601f10611c5b57610100808354040283529160200191611c86565b820191906000526020600020905b815481529060010190602001808311611c6957829003601f168201915b50505050508152602001600282018054611c9f90615926565b80601f0160208091040260200160405190810160405280929190818152602001828054611ccb90615926565b8015611d185780601f10611ced57610100808354040283529160200191611d18565b820191906000526020600020905b815481529060010190602001808311611cfb57829003601f168201915b50505050508152602001600382015481526020016004820154815260200160058201548152602001600682015481526020016007820154815260200160088201548152505081526020019060010190611bcf565b50505050905090565b611d7d613e31565b600660405180610100016040529081600082018054611d9b90615926565b80601f0160208091040260200160405190810160405280929190818152602001828054611dc790615926565b8015611e145780601f10611de957610100808354040283529160200191611e14565b820191906000526020600020905b815481529060010190602001808311611df757829003601f168201915b50505050508152602001600182018054611e2d90615926565b80601f0160208091040260200160405190810160405280929190818152602001828054611e5990615926565b8015611ea65780601f10611e7b57610100808354040283529160200191611ea6565b820191906000526020600020905b815481529060010190602001808311611e8957829003601f168201915b505050505081526020016002820154815260200160038201548152602001600482015481526020016005820154815260200160068201548152602001600782015481525050905090565b6006806000018054611f0190615926565b80601f0160208091040260200160405190810160405280929190818152602001828054611f2d90615926565b8015611f7a5780601f10611f4f57610100808354040283529160200191611f7a565b820191906000526020600020905b815481529060010190602001808311611f5d57829003601f168201915b505050505090806001018054611f8f90615926565b80601f0160208091040260200160405190810160405280929190818152602001828054611fbb90615926565b80156120085780601f10611fdd57610100808354040283529160200191612008565b820191906000526020600020905b815481529060010190602001808311611feb57829003601f168201915b5050505050908060020154908060030154908060040154908060050154908060060154908060070154905088565b6060600060106000848152602001908152602001600020604051806101200160405290816000820154815260200160018201805461207390615926565b80601f016020809104026020016040519081016040528092919081815260200182805461209f90615926565b80156120ec5780601f106120c1576101008083540402835291602001916120ec565b820191906000526020600020905b8154815290600101906020018083116120cf57829003601f168201915b5050505050815260200160028201805461210590615926565b80601f016020809104026020016040519081016040528092919081815260200182805461213190615926565b801561217e5780601f106121535761010080835404028352916020019161217e565b820191906000526020600020905b81548152906001019060200180831161216157829003601f168201915b505050505081526020016003820154815260200160048201548152602001600582015481526020016006820154815260200160078201548152602001600882015481525050905060006121d482606001516135a0565b905060006121e583608001516135a0565b905060006121f68460a001516135a0565b905060006122078560c001516135a0565b905060006122188660e001516135a0565b9050600061222a8761010001516135a0565b90506000612276886020015161223f8c6135a0565b8a604001518a8a8a8a8a8a60405160200161226299989796959493929190614ebc565b60405160208183030381529060405261374d565b905060008160405160200161228b9190614fa9565b6040516020818303038152906040529050809950505050505050505050919050565b6122b5613e76565b6000601160003373ffffffffffffffffffffffffffffffffffffffff1673ffffffffffffffffffffffffffffffffffffffff16815260200190815260200160002054905060008111156124935760106000828152602001908152602001600020604051806101200160405290816000820154815260200160018201805461233b90615926565b80601f016020809104026020016040519081016040528092919081815260200182805461236790615926565b80156123b45780601f10612389576101008083540402835291602001916123b4565b820191906000526020600020905b81548152906001019060200180831161239757829003601f168201915b505050505081526020016002820180546123cd90615926565b80601f01602080910402602001604051908101604052809291908181526020018280546123f990615926565b80156124465780601f1061241b57610100808354040283529160200191612446565b820191906000526020600020905b81548152906001019060200180831161242957829003601f168201915b5050505050815260200160038201548152602001600482015481526020016005820154815260200160068201548152602001600782015481526020016008820154815250509150506124a1565b61249b613e76565b80925050505b90565b6000601160003373ffffffffffffffffffffffffffffffffffffffff1673ffffffffffffffffffffffffffffffffffffffff16815260200190815260200160002054905060006010600083815260200190815260200160002090506000816003015411612546576040517f08c379a000000000000000000000000000000000000000000000000000000000815260040161253d9061546a565b60405180910390fd5b6126126040518060400160405280601881526020017f0a2573202823202573292069732061747461636b696e6721000000000000000081525082600101805461258e90615926565b80601f01602080910402602001604051908101604052809291908181526020018280546125ba90615926565b80156126075780601f106125dc57610100808354040283529160200191612607565b820191906000526020600020905b8154815290600101906020018083116125ea57829003601f168201915b50505050508461390b565b60006006600201541161265a576040517f08c379a0000000000000000000000000000000000000000000000000000000008152600401612651906154ea565b60405180910390fd5b612714604051806060016040528060228152602001615ba5602291396006600001805461268690615926565b80601f01602080910402602001604051908101604052809291908181526020018280546126b290615926565b80156126ff5780601f106126d4576101008083540402835291602001916126ff565b820191906000526020600020905b8154815290600101906020018083116126e257829003601f168201915b50505050506006600201548460070154612daf565b80600701546006600201541015612801576127f16040518060400160405280600c81526020017f0a257320697320646561642100000000000000000000000000000000000000008152506006600001805461276e90615926565b80601f016020809104026020016040519081016040528092919081815260200182805461279a90615926565b80156127e75780601f106127bc576101008083540402835291602001916127e7565b820191906000526020600020905b8154815290600101906020018083116127ca57829003601f168201915b5050505050613338565b6000600660020181905550612907565b6128e86040518060400160405280601481526020017f0a25733a202573204850202d2d3e2025732048500000000000000000000000008152506006600001805461284a90615926565b80601f016020809104026020016040519081016040528092919081815260200182805461287690615926565b80156128c35780601f10612898576101008083540402835291602001916128c3565b820191906000526020600020905b8154815290600101906020018083116128a657829003601f168201915b505050505060066002015484600701546006600201546128e3919061583c565b612daf565b80600701546006600201546128fd919061583c565b6006600201819055505b612a48604051806060016040528060318152602001615b34603191396006600001805461293390615926565b80601f016020809104026020016040519081016040528092919081815260200182805461295f90615926565b80156129ac5780601f10612981576101008083540402835291602001916129ac565b820191906000526020600020905b81548152906001019060200180831161298f57829003601f168201915b50505050508360010180546129c090615926565b80601f01602080910402602001604051908101604052809291908181526020018280546129ec90615926565b8015612a395780601f10612a0e57610100808354040283529160200191612a39565b820191906000526020600020905b815481529060010190602001808311612a1c57829003601f168201915b505050505060068001546133d4565b600680015481600301541015612b3257612b236040518060400160405280600c81526020017f0a25732069732064656164210000000000000000000000000000000000000000815250826001018054612aa090615926565b80601f0160208091040260200160405190810160405280929190818152602001828054612acc90615926565b8015612b195780601f10612aee57610100808354040283529160200191612b19565b820191906000526020600020905b815481529060010190602001808311612afc57829003601f168201915b5050505050613338565b60008160030181905550612c33565b612c166040518060400160405280601481526020017f0a25733a202573204850202d2d3e202573204850000000000000000000000000815250826001018054612b7a90615926565b80601f0160208091040260200160405190810160405280929190818152602001828054612ba690615926565b8015612bf35780601f10612bc857610100808354040283529160200191612bf3565b820191906000526020600020905b815481529060010190602001808311612bd657829003601f168201915b5050505050836003015460068001548560030154612c11919061583c565b612daf565b60068001548160030154612c2a919061583c565b81600301819055505b7f24596b044f9390b6f54a6470706bb6795f0a3a4b6d148ca80241481a5f60938c6006600201548260030154604051612c6d929190615644565b60405180910390a15050565b6000600560008473ffffffffffffffffffffffffffffffffffffffff1673ffffffffffffffffffffffffffffffffffffffff16815260200190815260200160002060008373ffffffffffffffffffffffffffffffffffffffff1673ffffffffffffffffffffffffffffffffffffffff16815260200190815260200160002060009054906101000a900460ff16905092915050565b612da984848484604051602401612d27949392919061519e565b6040516020818303038152906040527f8d142cdd000000000000000000000000000000000000000000000000000000007bffffffffffffffffffffffffffffffffffffffffffffffffffffffff19166020820180517bffffffffffffffffffffffffffffffffffffffffffffffffffffffff83818316178352505050506139aa565b50505050565b612e4b84848484604051602401612dc994939291906151f8565b6040516020818303038152906040527fd5cf17d0000000000000000000000000000000000000000000000000000000007bffffffffffffffffffffffffffffffffffffffffffffffffffffffff19166020820180517bffffffffffffffffffffffffffffffffffffffffffffffffffffffff83818316178352505050506139aa565b50505050565b6001816000016000828254019250508190555050565b60007f01ffc9a7000000000000000000000000000000000000000000000000000000007bffffffffffffffffffffffffffffffffffffffffffffffffffffffff1916827bffffffffffffffffffffffffffffffffffffffffffffffffffffffff1916149050919050565b60008073ffffffffffffffffffffffffffffffffffffffff166002600084815260200190815260200160002060009054906101000a900473ffffffffffffffffffffffffffffffffffffffff1673ffffffffffffffffffffffffffffffffffffffff1614159050919050565b600033905090565b816004600083815260200190815260200160002060006101000a81548173ffffffffffffffffffffffffffffffffffffffff021916908373ffffffffffffffffffffffffffffffffffffffff160217905550808273ffffffffffffffffffffffffffffffffffffffff16612fb8836110b0565b73ffffffffffffffffffffffffffffffffffffffff167f8c5be1e5ebec7d5bd14f71427d1e84f3dd0314c0f7b2291e5b200ac8c7c3b92560405160405180910390a45050565b600061300982612ed1565b613048576040517f08c379a000000000000000000000000000000000000000000000000000000000815260040161303f906153ca565b60405180910390fd5b6000613053836110b0565b90508073ffffffffffffffffffffffffffffffffffffffff168473ffffffffffffffffffffffffffffffffffffffff1614806130c257508373ffffffffffffffffffffffffffffffffffffffff166130aa846105ba565b73ffffffffffffffffffffffffffffffffffffffff16145b806130d357506130d28185612c79565b5b91505092915050565b8273ffffffffffffffffffffffffffffffffffffffff166130fc826110b0565b73ffffffffffffffffffffffffffffffffffffffff1614613152576040517f08c379a0000000000000000000000000000000000000000000000000000000008152600401613149906154aa565b60405180910390fd5b600073ffffffffffffffffffffffffffffffffffffffff168273ffffffffffffffffffffffffffffffffffffffff1614156131c2576040517f08c379a00000000000000000000000000000000000000000000000000000000081526004016131b99061538a565b60405180910390fd5b6131cd8383836139d3565b6131d8600082612f45565b6001600360008573ffffffffffffffffffffffffffffffffffffffff1673ffffffffffffffffffffffffffffffffffffffff1681526020019081526020016000206000828254613228919061583c565b925050819055506001600360008473ffffffffffffffffffffffffffffffffffffffff1673ffffffffffffffffffffffffffffffffffffffff168152602001908152602001600020600082825461327f919061575b565b92505081905550816002600083815260200190815260200160002060006101000a81548173ffffffffffffffffffffffffffffffffffffffff021916908373ffffffffffffffffffffffffffffffffffffffff160217905550808273ffffffffffffffffffffffffffffffffffffffff168473ffffffffffffffffffffffffffffffffffffffff167fddf252ad1be2c89b69c2b068fc378daa952ba7f163c4a11628f55a4df523b3ef60405160405180910390a4505050565b6133d0828260405160240161334e9291906150c8565b6040516020818303038152906040527f4b5c4277000000000000000000000000000000000000000000000000000000007bffffffffffffffffffffffffffffffffffffffffffffffffffffffff19166020820180517bffffffffffffffffffffffffffffffffffffffffffffffffffffffff83818316178352505050506139aa565b5050565b613470848484846040516024016133ee94939291906150ff565b6040516020818303038152906040527f9fd009f5000000000000000000000000000000000000000000000000000000007bffffffffffffffffffffffffffffffffffffffffffffffffffffffff19166020820180517bffffffffffffffffffffffffffffffffffffffffffffffffffffffff83818316178352505050506139aa565b50505050565b600081600001549050919050565b61349e8282604051806020016040528060008152506139d8565b5050565b61353e848484846040516024016134bc94939291906152d7565b6040516020818303038152906040527fa0c4b225000000000000000000000000000000000000000000000000000000007bffffffffffffffffffffffffffffffffffffffffffffffffffffffff19166020820180517bffffffffffffffffffffffffffffffffffffffffffffffffffffffff83818316178352505050506139aa565b50505050565b61354f8484846130dc565b61355b84848484613a33565b61359a576040517f08c379a00000000000000000000000000000000000000000000000000000000081526004016135919061532a565b60405180910390fd5b50505050565b606060008214156135e8576040518060400160405280600181526020017f30000000000000000000000000000000000000000000000000000000000000008152509050613748565b600082905060005b6000821461361a57808061360390615958565b915050600a8261361391906157b1565b91506135f0565b60008167ffffffffffffffff81111561365c577f4e487b7100000000000000000000000000000000000000000000000000000000600052604160045260246000fd5b6040519080825280601f01601f19166020018201604052801561368e5781602001600182028036833780820191505090505b5090505b60008514613741576001826136a7919061583c565b9150600a856136b691906159a1565b60306136c2919061575b565b60f81b8183815181106136fe577f4e487b7100000000000000000000000000000000000000000000000000000000600052603260045260246000fd5b60200101907effffffffffffffffffffffffffffffffffffffffffffffffffffffffffffff1916908160001a905350600a8561373a91906157b1565b9450613692565b8093505050505b919050565b606060008251905060008114156137765760405180602001604052806000815250915050613906565b60006003600283613787919061575b565b61379191906157b1565b600461379d91906157e2565b905060006020826137ae919061575b565b67ffffffffffffffff8111156137ed577f4e487b7100000000000000000000000000000000000000000000000000000000600052604160045260246000fd5b6040519080825280601f01601f19166020018201604052801561381f5781602001600182028036833780820191505090505b5090506000604051806060016040528060408152602001615b65604091399050600181016020830160005b868110156138c35760038101905062ffffff818a015116603f8160121c168401518060081b905060ff603f83600c1c1686015116810190508060081b905060ff603f8360061c1686015116810190508060081b905060ff603f831686015116810190508060e01b9050808452600484019350505061384a565b5060038606600181146138dd57600281146138ed576138f8565b613d3d60f01b60028303526138f8565b603d60f81b60018303525b508484525050819450505050505b919050565b6139a583838360405160240161392393929190615159565b6040516020818303038152906040527ff362ca59000000000000000000000000000000000000000000000000000000007bffffffffffffffffffffffffffffffffffffffffffffffffffffffff19166020820180517bffffffffffffffffffffffffffffffffffffffffffffffffffffffff83818316178352505050506139aa565b505050565b60008151905060006a636f6e736f6c652e6c6f679050602083016000808483855afa5050505050565b505050565b6139e28383613bca565b6139ef6000848484613a33565b613a2e576040517f08c379a0000000000000000000000000000000000000000000000000000000008152600401613a259061532a565b60405180910390fd5b505050565b6000613a548473ffffffffffffffffffffffffffffffffffffffff16613d98565b15613bbd578373ffffffffffffffffffffffffffffffffffffffff1663150b7a02613a7d612f3d565b8786866040518563ffffffff1660e01b8152600401613a9f9493929190614fe6565b602060405180830381600087803b158015613ab957600080fd5b505af1925050508015613aea57506040513d601f19601f82011682018060405250810190613ae79190614180565b60015b613b6d573d8060008114613b1a576040519150601f19603f3d011682016040523d82523d6000602084013e613b1f565b606091505b50600081511415613b65576040517f08c379a0000000000000000000000000000000000000000000000000000000008152600401613b5c9061532a565b60405180910390fd5b805181602001fd5b63150b7a0260e01b7bffffffffffffffffffffffffffffffffffffffffffffffffffffffff1916817bffffffffffffffffffffffffffffffffffffffffffffffffffffffff191614915050613bc2565b600190505b949350505050565b600073ffffffffffffffffffffffffffffffffffffffff168273ffffffffffffffffffffffffffffffffffffffff161415613c3a576040517f08c379a0000000000000000000000000000000000000000000000000000000008152600401613c319061544a565b60405180910390fd5b613c4381612ed1565b15613c83576040517f08c379a0000000000000000000000000000000000000000000000000000000008152600401613c7a9061534a565b60405180910390fd5b613c8f600083836139d3565b6001600360008473ffffffffffffffffffffffffffffffffffffffff1673ffffffffffffffffffffffffffffffffffffffff1681526020019081526020016000206000828254613cdf919061575b565b92505081905550816002600083815260200190815260200160002060006101000a81548173ffffffffffffffffffffffffffffffffffffffff021916908373ffffffffffffffffffffffffffffffffffffffff160217905550808273ffffffffffffffffffffffffffffffffffffffff16600073ffffffffffffffffffffffffffffffffffffffff167fddf252ad1be2c89b69c2b068fc378daa952ba7f163c4a11628f55a4df523b3ef60405160405180910390a45050565b600080823b905060008111915050919050565b828054613db790615926565b90600052602060002090601f016020900481019282613dd95760008555613e20565b82601f10613df257805160ff1916838001178555613e20565b82800160010185558215613e20579182015b82811115613e1f578251825591602001919060010190613e04565b5b509050613e2d9190613ec2565b5090565b60405180610100016040528060608152602001606081526020016000815260200160008152602001600081526020016000815260200160008152602001600081525090565b6040518061012001604052806000815260200160608152602001606081526020016000815260200160008152602001600081526020016000815260200160008152602001600081525090565b5b80821115613edb576000816000905550600101613ec3565b5090565b6000613ef2613eed8461569e565b61566d565b905082815260208101848484011115613f0a57600080fd5b613f158482856158e4565b509392505050565b600081359050613f2c81615a9f565b92915050565b600081359050613f4181615ab6565b92915050565b600081359050613f5681615acd565b92915050565b600081519050613f6b81615acd565b92915050565b600082601f830112613f8257600080fd5b8135613f92848260208601613edf565b91505092915050565b600081359050613faa81615ae4565b92915050565b600060208284031215613fc257600080fd5b6000613fd084828501613f1d565b91505092915050565b60008060408385031215613fec57600080fd5b6000613ffa85828601613f1d565b925050602061400b85828601613f1d565b9150509250929050565b60008060006060848603121561402a57600080fd5b600061403886828701613f1d565b935050602061404986828701613f1d565b925050604061405a86828701613f9b565b9150509250925092565b6000806000806080858703121561407a57600080fd5b600061408887828801613f1d565b945050602061409987828801613f1d565b93505060406140aa87828801613f9b565b925050606085013567ffffffffffffffff8111156140c757600080fd5b6140d387828801613f71565b91505092959194509250565b600080604083850312156140f257600080fd5b600061410085828601613f1d565b925050602061411185828601613f32565b9150509250929050565b6000806040838503121561412e57600080fd5b600061413c85828601613f1d565b925050602061414d85828601613f9b565b9150509250929050565b60006020828403121561416957600080fd5b600061417784828501613f47565b91505092915050565b60006020828403121561419257600080fd5b60006141a084828501613f5c565b91505092915050565b6000602082840312156141bb57600080fd5b60006141c984828501613f9b565b91505092915050565b60006141de8383614d06565b905092915050565b6141ef81615870565b82525050565b6000614200826156de565b61420a818561570c565b93508360208202850161421c856156ce565b8060005b85811015614258578484038952815161423985826141d2565b9450614244836156ff565b925060208a01995050600181019050614220565b50829750879550505050505092915050565b61427381615882565b82525050565b6000614284826156e9565b61428e818561571d565b935061429e8185602086016158f3565b6142a781615a8e565b840191505092915050565b60006142bd826156f4565b6142c7818561572e565b93506142d78185602086016158f3565b6142e081615a8e565b840191505092915050565b60006142f6826156f4565b614300818561573f565b93506143108185602086016158f3565b61431981615a8e565b840191505092915050565b600061432f826156f4565b6143398185615750565b93506143498185602086016158f3565b80840191505092915050565b6000614362602483615750565b91507f7d2c207b202274726169745f74797065223a20224d616e61222c202276616c7560008301527f65223a20000000000000000000000000000000000000000000000000000000006020830152602482019050919050565b60006143c8600b83615750565b91507f202d2d204e465420233a200000000000000000000000000000000000000000006000830152600b82019050919050565b600061440860328361573f565b91507f4552433732313a207472616e7366657220746f206e6f6e20455243373231526560008301527f63656976657220696d706c656d656e74657200000000000000000000000000006020830152604082019050919050565b600061446e601c8361573f565b91507f4552433732313a20746f6b656e20616c7265616479206d696e746564000000006000830152602082019050919050565b60006144ae601a8361573f565b91507f4572726f723a2053657069726f746820686173206e6f204d50210000000000006000830152602082019050919050565b60006144ee600e83615750565b91507f2c20226d61785f76616c7565223a0000000000000000000000000000000000006000830152600e82019050919050565b600061452e60248361573f565b91507f4552433732313a207472616e7366657220746f20746865207a65726f2061646460008301527f72657373000000000000000000000000000000000000000000000000000000006020830152604082019050919050565b600061459460198361573f565b91507f4552433732313a20617070726f766520746f2063616c6c6572000000000000006000830152602082019050919050565b60006145d4602c8361573f565b91507f4552433732313a206f70657261746f7220717565727920666f72206e6f6e657860008301527f697374656e7420746f6b656e00000000000000000000000000000000000000006020830152604082019050919050565b600061463a60388361573f565b91507f4552433732313a20617070726f76652063616c6c6572206973206e6f74206f7760008301527f6e6572206e6f7220617070726f76656420666f7220616c6c00000000000000006020830152604082019050919050565b60006146a0602a8361573f565b91507f4552433732313a2062616c616e636520717565727920666f7220746865207a6560008301527f726f2061646472657373000000000000000000000000000000000000000000006020830152604082019050919050565b600061470660298361573f565b91507f4552433732313a206f776e657220717565727920666f72206e6f6e657869737460008301527f656e7420746f6b656e00000000000000000000000000000000000000000000006020830152604082019050919050565b600061476c60208361573f565b91507f4552433732313a206d696e7420746f20746865207a65726f20616464726573736000830152602082019050919050565b60006147ac600383615750565b91507f7d5d7d00000000000000000000000000000000000000000000000000000000006000830152600382019050919050565b60006147ec60188361573f565b91507f4572726f723a20506c6179657220686173206e6f2048502100000000000000006000830152602082019050919050565b600061482c602c8361573f565b91507f4552433732313a20617070726f76656420717565727920666f72206e6f6e657860008301527f697374656e7420746f6b656e00000000000000000000000000000000000000006020830152604082019050919050565b600061489260298361573f565b91507f4552433732313a207472616e73666572206f6620746f6b656e2074686174206960008301527f73206e6f74206f776e00000000000000000000000000000000000000000000006020830152604082019050919050565b60006148f8600a83615750565b91507f7b226e616d65223a2022000000000000000000000000000000000000000000006000830152600a82019050919050565b6000614938602c83615750565b91507f7d2c207b202274726169745f74797065223a20225370656c6c2044616d61676560008301527f222c202276616c7565223a2000000000000000000000000000000000000000006020830152602c82019050919050565b600061499e60218361573f565b91507f4552433732313a20617070726f76616c20746f2063757272656e74206f776e6560008301527f72000000000000000000000000000000000000000000000000000000000000006020830152604082019050919050565b6000614a04601d83615750565b91507f646174613a6170706c69636174696f6e2f6a736f6e3b6261736536342c0000006000830152601d82019050919050565b6000614a44601a8361573f565b91507f4572726f723a2053657069726f746820686173206e6f204850210000000000006000830152602082019050919050565b6000614a8460318361573f565b91507f4552433732313a207472616e736665722063616c6c6572206973206e6f74206f60008301527f776e6572206e6f7220617070726f7665640000000000000000000000000000006020830152604082019050919050565b6000614aea602d83615750565b91507f7d2c207b202274726169745f74797065223a202241747461636b2044616d616760008301527f65222c202276616c7565223a20000000000000000000000000000000000000006020830152602d82019050919050565b6000614b50604083615750565b91507f222c20226465736372697074696f6e223a202246696e616c2046616e7461737960008301527f206f6e2074686520626c6f636b636861696e21222c2022696d616765223a20226020830152604082019050919050565b6000614bb6603683615750565b91507f222c202261747472696275746573223a205b207b202274726169745f7479706560008301527f223a20224865616c7468222c202276616c7565223a20000000000000000000006020830152603682019050919050565b6000614c1c60188361573f565b91507f4572726f723a20506c6179657220686173206e6f204d502100000000000000006000830152602082019050919050565b6000610100830160008301518482036000860152614c6d82826142b2565b91505060208301518482036020860152614c8782826142b2565b9150506040830151614c9c6040860182614e9e565b506060830151614caf6060860182614e9e565b506080830151614cc26080860182614e9e565b5060a0830151614cd560a0860182614e9e565b5060c0830151614ce860c0860182614e9e565b5060e0830151614cfb60e0860182614e9e565b508091505092915050565b600061012083016000830151614d1f6000860182614e9e565b5060208301518482036020860152614d3782826142b2565b91505060408301518482036040860152614d5182826142b2565b9150506060830151614d666060860182614e9e565b506080830151614d796080860182614e9e565b5060a0830151614d8c60a0860182614e9e565b5060c0830151614d9f60c0860182614e9e565b5060e0830151614db260e0860182614e9e565b50610100830151614dc7610100860182614e9e565b508091505092915050565b600061012083016000830151614deb6000860182614e9e565b5060208301518482036020860152614e0382826142b2565b91505060408301518482036040860152614e1d82826142b2565b9150506060830151614e326060860182614e9e565b506080830151614e456080860182614e9e565b5060a0830151614e5860a0860182614e9e565b5060c0830151614e6b60c0860182614e9e565b5060e0830151614e7e60e0860182614e9e565b50610100830151614e93610100860182614e9e565b508091505092915050565b614ea7816158da565b82525050565b614eb6816158da565b82525050565b6000614ec7826148eb565b9150614ed3828c614324565b9150614ede826143bb565b9150614eea828b614324565b9150614ef582614b43565b9150614f01828a614324565b9150614f0c82614ba9565b9150614f188289614324565b9150614f23826144e1565b9150614f2f8288614324565b9150614f3a82614355565b9150614f468287614324565b9150614f51826144e1565b9150614f5d8286614324565b9150614f6882614add565b9150614f748285614324565b9150614f7f8261492b565b9150614f8b8284614324565b9150614f968261479f565b91508190509a9950505050505050505050565b6000614fb4826149f7565b9150614fc08284614324565b915081905092915050565b6000602082019050614fe060008301846141e6565b92915050565b6000608082019050614ffb60008301876141e6565b61500860208301866141e6565b6150156040830185614ead565b81810360608301526150278184614279565b905095945050505050565b600060608201905061504760008301866141e6565b6150546020830185614ead565b6150616040830184614ead565b949350505050565b6000602082019050818103600083015261508381846141f5565b905092915050565b60006020820190506150a0600083018461426a565b92915050565b600060208201905081810360008301526150c081846142eb565b905092915050565b600060408201905081810360008301526150e281856142eb565b905081810360208301526150f681846142eb565b90509392505050565b6000608082019050818103600083015261511981876142eb565b9050818103602083015261512d81866142eb565b9050818103604083015261514181856142eb565b90506151506060830184614ead565b95945050505050565b6000606082019050818103600083015261517381866142eb565b9050818103602083015261518781856142eb565b90506151966040830184614ead565b949350505050565b600060808201905081810360008301526151b881876142eb565b905081810360208301526151cc81866142eb565b90506151db6040830185614ead565b81810360608301526151ed81846142eb565b905095945050505050565b6000608082019050818103600083015261521281876142eb565b9050818103602083015261522681866142eb565b90506152356040830185614ead565b6152426060830184614ead565b95945050505050565b6000610100820190508181036000830152615266818b6142eb565b9050818103602083015261527a818a6142eb565b90506152896040830189614ead565b6152966060830188614ead565b6152a36080830187614ead565b6152b060a0830186614ead565b6152bd60c0830185614ead565b6152ca60e0830184614ead565b9998505050505050505050565b600060808201905081810360008301526152f181876142eb565b90506153006020830186614ead565b818103604083015261531281856142eb565b90506153216060830184614ead565b95945050505050565b60006020820190508181036000830152615343816143fb565b9050919050565b6000602082019050818103600083015261536381614461565b9050919050565b60006020820190508181036000830152615383816144a1565b9050919050565b600060208201905081810360008301526153a381614521565b9050919050565b600060208201905081810360008301526153c381614587565b9050919050565b600060208201905081810360008301526153e3816145c7565b9050919050565b600060208201905081810360008301526154038161462d565b9050919050565b6000602082019050818103600083015261542381614693565b9050919050565b60006020820190508181036000830152615443816146f9565b9050919050565b600060208201905081810360008301526154638161475f565b9050919050565b60006020820190508181036000830152615483816147df565b9050919050565b600060208201905081810360008301526154a38161481f565b9050919050565b600060208201905081810360008301526154c381614885565b9050919050565b600060208201905081810360008301526154e381614991565b9050919050565b6000602082019050818103600083015261550381614a37565b9050919050565b6000602082019050818103600083015261552381614a77565b9050919050565b6000602082019050818103600083015261554381614c0f565b9050919050565b600060208201905081810360008301526155648184614c4f565b905092915050565b600060208201905081810360008301526155868184614dd2565b905092915050565b60006020820190506155a36000830184614ead565b92915050565b6000610120820190506155bf600083018c614ead565b81810360208301526155d1818b6142eb565b905081810360408301526155e5818a6142eb565b90506155f46060830189614ead565b6156016080830188614ead565b61560e60a0830187614ead565b61561b60c0830186614ead565b61562860e0830185614ead565b615636610100830184614ead565b9a9950505050505050505050565b60006040820190506156596000830185614ead565b6156666020830184614ead565b9392505050565b6000604051905081810181811067ffffffffffffffff8211171561569457615693615a5f565b5b8060405250919050565b600067ffffffffffffffff8211156156b9576156b8615a5f565b5b601f19601f8301169050602081019050919050565b6000819050602082019050919050565b600081519050919050565b600081519050919050565b600081519050919050565b6000602082019050919050565b600082825260208201905092915050565b600082825260208201905092915050565b600082825260208201905092915050565b600082825260208201905092915050565b600081905092915050565b6000615766826158da565b9150615771836158da565b9250827fffffffffffffffffffffffffffffffffffffffffffffffffffffffffffffffff038211156157a6576157a56159d2565b5b828201905092915050565b60006157bc826158da565b91506157c7836158da565b9250826157d7576157d6615a01565b5b828204905092915050565b60006157ed826158da565b91506157f8836158da565b9250817fffffffffffffffffffffffffffffffffffffffffffffffffffffffffffffffff0483118215151615615831576158306159d2565b5b828202905092915050565b6000615847826158da565b9150615852836158da565b925082821015615865576158646159d2565b5b828203905092915050565b600061587b826158ba565b9050919050565b60008115159050919050565b60007fffffffff0000000000000000000000000000000000000000000000000000000082169050919050565b600073ffffffffffffffffffffffffffffffffffffffff82169050919050565b6000819050919050565b82818337600083830152505050565b60005b838110156159115780820151818401526020810190506158f6565b83811115615920576000848401525b50505050565b6000600282049050600182168061593e57607f821691505b6020821081141561595257615951615a30565b5b50919050565b6000615963826158da565b91507fffffffffffffffffffffffffffffffffffffffffffffffffffffffffffffffff821415615996576159956159d2565b5b600182019050919050565b60006159ac826158da565b91506159b7836158da565b9250826159c7576159c6615a01565b5b828206905092915050565b7f4e487b7100000000000000000000000000000000000000000000000000000000600052601160045260246000fd5b7f4e487b7100000000000000000000000000000000000000000000000000000000600052601260045260246000fd5b7f4e487b7100000000000000000000000000000000000000000000000000000000600052602260045260246000fd5b7f4e487b7100000000000000000000000000000000000000000000000000000000600052604160045260246000fd5b6000601f19601f8301169050919050565b615aa881615870565b8114615ab357600080fd5b50565b615abf81615882565b8114615aca57600080fd5b50565b615ad68161588e565b8114615ae157600080fd5b50565b615aed816158da565b8114615af857600080fd5b5056fe4d696e746564204e465420772f20746f6b656e49642025732c206e616d652025732c20616e6420636861726163746572496e6465782025730a257320697320636f756e7465722d61747461636b696e672025732120546865792074616b652025732064616d6167652e4142434445464748494a4b4c4d4e4f505152535455565758595a6162636465666768696a6b6c6d6e6f707172737475767778797a303132333435363738392b2f0a25732068617320257320485020616e642074616b65732025732064616d616765210a257320697320636f756e7465722d61747461636b696e672025732077697468206d616769632120546865792074616b652025732064616d6167652e0a2573202823202573292069732063617374696e672061207370656c6c206f6e20257321a264697066735822122042f726e7e675e8d9be886509e0d2abc9b176242ebfe48f640c525ce6d74a068064736f6c63430008000033446f6e6520696e697469616c697a696e6720257320772f2025732048502026202573204d50446f6e6520696e697469616c697a696e6720626f737320257320772f2048502025732c20696d67202573",
  "linkReferences": {},
  "deployedLinkReferences": {}
}